:10088800020C00000214000002120000020E000117
:0808980002080002020A00033D
:040712008E1C8F1D8D
:100716000000751E2B751F067520CBE4FBFAAD1D78
:10072600AC1CAF0FAE0E12048ED520FDD51FFAE419
:10073600FBFAAD1DAC1CAF0FAE0E12048ED51EDB40
:0E074600E4FBFAAD1DAC1CAF0FAE0E02048E2C
:10052B001208F21208A11208DF1208FFE50E70FC88
:10053B00E50F24FE60220470F31208348E108F1125
:10054B007F147E0012069EAD0DAC0CAF11AE1012D7
:10055B0003D28E0C8F0D80D4C28CE5176401451627
:10056B007029FBFAAD09AC08AF0FAE0E12048EAFBB
:10057B0009AE08120712E509150970021508E509FD
:10058B00450870A8F50E750F0180A1E4FBFAAD0BC1
:10059B00AC0AAF0FAE0E12048EAF0BAE0A120712DF
:1005AB00E50B150B7002150AE50B450A60030205F6
:0905BB0037F50E750F010205373A
:03000B0002030CE1
:10030C00C0E0C0F0C083C082C0D075D000C000C0B7
:10031C0001C002C003C004C005C006C0070515E536
:10032C0015700205140513E51370020512E515B4DA
:10033C00F416E514B40111751400751500E50D647F
:10034C0001450C7003120754E51364E87004E512C0
:10035C0064037057F512F513E50F6402450E704BEC
:10036C00E51764014516701EE5091509700215089C
:10037C00E4FBFAAD09AC08AF0FAE0E12048EE50922
:10038C0045087027801CE50B150B7002150AE4FB61
:10039C00FAAD0BAC0AAF0FAE0E12048EE50B450A8C
:1003AC0070091208F2750E00750F01D007D006D037
:1003BC0005D004D003D002D001D000D0D0D082D050
:0603CC0083D0F0D0E03206
:1008CC00D2A1D2A00000000000C2A10000000000D4
:0308DC00C2A02295
:0C091900C2A1D2A00000000000D2A12268
:1007F600EF6004C2A18002D2A10000000000D2A0D6
:0F0806000000000000C2A0D2A1000000000022EC
:10085100D2A10000000000D2A0000000000030A1E1
:0C08610007C2A0120919C322C2A0D322B2
:1007D300E4FEEF30E704D2A18002C2A100000000D2
:1007E30000D2A0EF25E0FF0000000000C2A00EBE73
:0207F30008E01C
:0107F50022E1
:10081500E4FED2A00000000000EF25E0FF30A103B8
:0E082500430701C2A000000000000EBE08E460
:0108330022A2
:0B092500C0F9A4B0999282F88090FF06
:100650007F077E00120789AF25AE2412086D7F1434
:100660007E0012069E7F037E00120789AE26AF270A
:100670007C007D0A120273AE04AF0512086D7F1470
:100680007E0012069E7F047E00120789AE26AF27E9
:0E0690007C007D0A12027312086D7F147E003A
:10069E00D3EF9400EE6480948040147D6E7C00ED68
:0F06AE001D70011CED4C70F7EF1F70E41E80E112
:0106BD00221A
:10086D0075A00075A0E07580FF74252FF5827409C1
:0B087D003EF583E493F58053A01F229A
:03078600E4FFFE8F
:10078900C374079FFFE49EFE75A00075A0C0758025
:10079900007401A807088002C333D8FC428053A023
:0507A9001F7580002215
:0D08F20075A00075A0A075800053A01F2206
:1008A1001208CC7F901207D31208517F031207D38D
:0608B100120851020919B2
:100834001208CC7F911207D31208511208158F1C8D
:0C0844007F011207F6120919AF1C7E009C
:010850002285
:1008DF00438E80E4F589758CD4758ACDD28CD2A9DC
:0308EF00D2AF2263
:0D08FF00438E40E4F58DF58BD2ABC28E2206
:1008B700E4FFFEB290000000000FBF00010EEF64DE
:0408C700104E70EF70
:0108CB00220A
:1006BE001208B7D28E309103308FFAC28E308F105F
:1006CE00C28F7527007526C0752579752444802B39
:1006DE00AF8BAD077C00AF8DEFFEE42DFDEC3EFC45
:1006EE001201B97B047AE7798C783C12000E8F27C1
:1006FE008E268D258C24E4F58BF58DAF27AE26AD99
:03070E0025AC24F3
:0107110022C5
:10048E008E248F258C268D27E524600302052AE510
:10049E002524FE60321460572402600302052A12DE
:1004AE000650120786D3E527941EE52664809480B5
:1004BE00400875160075170280067516007517012F
:1004CE00AF17AE160205277F077E00120789AF25EC
:1004DE00AE241206977F01120687120786AE26AF4C
:1004EE00277C007D0A120273AE04AF0502052712A7
:1004FE0006507F017E001207897C007D0AAF03AE95
:10050E0002120694E4FFFE120789AE02AF037C00CE
:0D051E007D0A120273AE04AF05120697228B
:1007AE00E4FBFAAF03AE0212078975A00075A0E054
:1007BE007580FF53A01F12069A0BBB00010AEB6453
:0407CE00084A70DF86
:0107D2002204
:0803D2008E1C8F1D8C1E8D1F77
:1003DA00C3E51D94C0E51C64809480400BD28C75E3
:1003EA001E00751F011207AEC3E51D9432E51C6499
:1003FA008094804062E51D94C0E51C64809480501E
:10040A0056C28CE4F51EF51FF5A075A0807580FF15
:10041A005380FD53A01F1208F21206BE8F238E22AC
:10042A008D218C20E4FBFA79207841120117120100
:10043A00F2AD07AC06E4FBFAAF0FAE0E12048E2043
:10044A00B3157F057E0012069E20B30B750E00754C
:10045A000F0212090CD28CC3E51D9432E51C64808C
:10046A009480501BC28CE4F51EF51FF5A075A08080
:10047A007580FF5380FE53A01F1208F21207AEAE1A
:03048A001EAF1F83
:01048D00224C
:0D090C0075A00075A0A075801053A01F22DB
:1007540075A00075A0807580FFE5187005438004BE
:1007640080035380FB53A01F7F0A7E0012069E75F0
:10077400A00075A0A0A282E433F51875804053A0B0
:010784001F55
:010785002251
:10000E00EC4D6011E8497017ED33EC3304600DE4EC
:10001E00FCFFFEFD22E933E8330470F802025E12A3
:10002E00022958046009E4CC2481500628500902A4
:10003E000268284003020265C0E0EB4A7044B980B2
:10004E0006D0E0FB020254EF4E701CBD8008EBFFA1
:10005E00EAFEE9FD80EBE98DF0A4FEE5F00200F783
:10006E00E9CDF9EAFEEBFFEF89F0A4FCE5F0CE89CD
:10007E00F0A42EFFE435F0CD89F0A42DFEE435F08A
:10008E008067EF4E7005BD80D780C3EF8BF0A4ACB8
:10009E00F0EE8BF0A42CFCE435F0F8EF8AF0A42CF3
:1000AE00E5F038FCE433CB8DF0A42CFCE5F03BF806
:1000BE00EE8AF0A42CFCE5F038F8E433CF89F0A4F6
:1000CE002CFCE5F038CF3400CE89F0A42FFFE5F0FC
:1000DE003EFEE433C98DF0A42EFEE5F039CD8AF054
:1000EE00A42FFFE5F03EFEE43DFD33D0E0FB5007CC
:1000FE000BBB000F020268EC2CFCEF33FFEE33FE5D
:06010E00ED33FD0202408A
:10011400020268EC5D046005E85904700302025EA3
:10012400120229580460F6EC4860F2EC7004FDFEFB
:10013400FF22C860DB2481C85009C39860025006BE
:100144000202659850CAF582E9294B4A7005AB82D0
:1001540002025475F0007C1A7880C3EF9BEE9AED8E
:1001640099400DC3EF9BFFEE9AFEED99FDE842F036
:10017400DC23ACF0D0E0FFD0E0FED0E0FDAB822089
:10018400E7101BEB60BAEC2CFCEF33FFEE33FEED13
:1001940033FD020240E803F830E705C0F075F000D3
:1001A400EF2FFFEE33FEED33FD40B830E7C280AAF7
:1001B40075F020800E75F010800575F0087D007EC6
:1001C400007F003392D530D5031202A9EC334010DE
:1001D400EF33FFEE33FEED33FDEC33FCD5F0ED22CF
:0E01E400E5F0247EA2D513CC92E7CDCEFF220B
:1001F200EDD2E7CD33EC3392D524814006E4FFFE05
:10020200FDFC22FCE4CFCECDCC24E0501174FF8063
:10021200EDC3CC13CCCD13CDCE13CECF13CF047000
:07022200F030D5DE0202A955
:10022900E9D2E7C933E833F892D5EDD2E7CD33EC1B
:0702390033FC5002B2D52294
:10024000EC30E7100FBF000C0EBE00080DBD00041F
:100250000BEB6014A2D5EB13FCED92E7FD2274FFCB
:10026000FCFDFEFF22E480F8A2D574FF13FC7D8024
:03027000E480EF38
:030000000205C432
:0C05C400787FE4F6D8FD75812702060B55
:10027300C2D5EC30E709B2D5E4C39DFDE49CFCEEA6
:1002830030E715B2D5E4C39FFFE49EFE1202B7C365
:10029300E49DFDE49CFC80031202B730D507C3E460
:0602A3009FFFE49EFE2215
:0E02A900C3E49FFFE49EFEE49DFDE49CFC2266
:1005D00002052BE493A3F8E493A34003F68001F211
:1005E00008DFF48029E493A3F85407240CC8C3332C
:1005F000C4540F4420C8834004F456800146F6DFFB
:10060000E4800B0102040810204080900888E47EFA
:10061000019360BCA3FF543F30E509541FFEE493EF
:10062000A360010ECF54C025E060A840B8E493A3B6
:10063000FAE493A3F8E493A3C8C582C8CAC583CAE1
:10064000F0A3C8C582C8CAC583CADFE9DEE780BE99
:0108A0000057
:1002B700BC000BBE0029EF8DF084FFADF022E4CC2B
:1002C700F875F008EF2FFFEE33FEEC33FCEE9DECF4
:1002D700984005FCEE9DFE0FD5F0E9E4CEFD22ED3A
:1002E700F8F5F0EE8420D21CFEADF075F008EF2F84
:1002F700FFED33FD4007985006D5F0F222C398FD75
:050307000FD5F0EA2211
:00000001FF
