:0A021A00C0F9A4B0999282F8809018
:04000300020A0000ED
:1001B000D3EF9400EE6480948040147D6E7C00ED5B
:0F01C0001D70011CED4C70F7EF1F70E41E80E105
:0101CF00220D
:0D020D0075A00075A0A075800053A01F22F1
:1001D00075A00075A0E07580FF741A2FF582740277
:0B01E0003EF583E493F58053A01F223E
:10018E00C374079FFFE49EFE75A00075A0C0758026
:10019E00007401A807088002C333D8FCF58053A071
:0201AE001F220E
:040125008E0E8F0F9C
:10012900E4FBFAAF03AE0212018EAE0EAF0F7C00F4
:100139007D0A12009AAE04AF051201D07F147E0029
:100149001201B0AE0EAF0F7C007D0A12009A8E0E1E
:0D0159008F0F0BBB00010AEB64084A70C653
:010166002276
:1001EB00438E80E4F589758ACD758CD4D2AFD28CD1
:0301FB00D2A92264
:0F01FE0012020D1201EBAF09AE0812012580F7B6
:03000B0002016788
:10016700C0E0C0D0050BE50B7002050AB4E813E543
:100177000AB4030E750A00750B000509E50970023C
:070187000508D0D0D0E032E2
:0300000002000EED
:0C000E00787FE4F6D8FD75810F020055E4
:10009A00C2D5EC30E709B2D5E4C39DFDE49CFCEE81
:1000AA0030E715B2D5E4C39FFFE49EFE1200D0C329
:1000BA00E49DFDE49CFC80031200D030D507C3E424
:0600CA009FFFE49EFE22F0
:10001A000201FEE493A3F8E493A34003F68001F2FD
:10002A0008DFF48029E493A3F85407240CC8C333E7
:10003A00C4540F4420C8834004F456800146F6DFB6
:10004A00E4800B0102040810204080900003E47E43
:10005A00019360BCA3FF543F30E509541FFEE493AB
:10006A00A360010ECF54C025E060A840B8E493A372
:10007A00FAE493A3F8E493A3C8C582C8CAC583CA9D
:10008A00F0A3C8C582C8CAC583CADFE9DEE780BE55
:0100070000F8
:1000D000BC000BBE0029EF8DF084FFADF022E4CC14
:1000E000F875F008EF2FFFEE33FEEC33FCEE9DECDD
:1000F000984005FCEE9DFE0FD5F0E9E4CEFD22ED23
:10010000F8F5F0EE8420D21CFEADF075F008EF2F6C
:10011000FFED33FD4007985006D5F0F222C398FD5D
:050120000FD5F0EA22FA
:00000001FF
