:0A020400C0F9A4B0999282F880902E
:1001A000D3EF9400EE6480948040147D6E7C00ED6B
:0F01B0001D70011CED4C70F7EF1F70E41E80E115
:0101BF00221D
:0D01EB0075A00075A0A075800053A01F2214
:1001C00075A00075A0E07580FF74042FF58274029D
:0B01D0003EF583E493F58053A01F224E
:10017B00C374079FFFE49EFE75A00075A0C0758039
:10018B00007401A807088002C333D8FC428053A037
:05019B001F7580002229
:0800D1008F0B8E0A8D098C08CB
:1000D900750E00750F01E4F50CF50DAF0DAE0C12A0
:1000E900017BE47B0AFAF9F8AF0BAE0AAD09AC085B
:1000F900120137AE02AF031201C07F147E00120154
:10010900A0AF0BAE0AAD09AC08E47B0AFAF9F81204
:1001190001378F0B8E0A8D098C08050DE50D7002CC
:0D012900050CC39408E50C6480948040AE82
:0101360022A6
:1001DB001201EB7F4E7E617DBC7C001200D180F35F
:030000000201F802
:0C01F800787FE4F6D8FD75810F0201DB72
:10013700C2D5E830E70FB2D5E4C39BFBE49AFAE4F3
:1001470099F9E498F8EC30E717B2D512016D12006F
:100157003FE4C39BFBE49AFAE499F9E498F8800337
:1001670012003F30D50DE4C39FFFE49EFEE49DFDE2
:04017700E49CFC22E6
:1000030075F008758200EF2FFFEE33FECD33CDCCB4
:1000130033CCC58233C5829BED9AEC99E582984037
:100023000CF582EE9BFEED9AFDEC99FC0FD5F0D614
:10003300E4CEFBE4CDFAE4CCF9A88222B800C1B93E
:100043000059BA002DEC8BF084CFCECDFCE5F0CB7C
:10005300F97818EF2FFFEE33FEED33FDEC33FCEBB5
:1000630033FB10D703994004EB99FB0FD8E5E4F970
:10007300FA227818EF2FFFEE33FEED33FDEC33FC5D
:10008300C933C910D7059BE99A4007EC9BFCE99A51
:10009300F90FD8E0E4C9FAE4CCFB2275F010EF2F96
:1000A300FFEE33FEED33FDCC33CCC833C810D70796
:1000B3009BEC9AE899400AED9BFDEC9AFCE899F8D1
:0E00C3000FD5F0DAE4CDFBE4CCFAE4C8F92264
:00000001FF
