:0A05B700C0F9A4B0999282F8809078
:1004F800D3EF9400EE6480948040147D6E7C00ED10
:0F0508001D70011CED4C70F7EF1F70E41E80E1B9
:0105170022C1
:0D059E0075A00075A0A075800053A01F225D
:1005360075A00075A0E07580FF74B72FF58274056D
:0B0546003EF583E493F58053A01F22D4
:1004D300C374079FFFE49EFE75A00075A0C07580DE
:1004E300007401A807088002C333D8FC428053A0DC
:0504F3001F75800022CE
:08039C008F0D8E0C8D0B8C0AF5
:1003A400751000751101E4F50EF50FAF0FAE0E12C6
:1003B40004D3E47B0AFAF9F8AF0DAE0CAD0BAC0A2A
:1003C400120468AE02AF031205367F147E001204D5
:1003D400F8AF0DAE0CAD0BAC0AE47B0AFAF9F812D7
:1003E40004688F0D8E0C8D0B8C0A050FE50F7002BF
:0D03F400050EC39408E50E6480948040AEB1
:0104010022D8
:100402001204AC7FCC1205187F441205187FC87EF7
:10041200001205551204AC7FCC1205187FBE1205DE
:100422001812056B8F0A12056BEFFEE50AFFFDAC91
:1004320006E4120206E4FBFA7980783D1200FB8F93
:10044200158E148D138C12E4FFFE7D207C41AB15BA
:10045200AA14A913A8121200FBE4FBFAF9783F12BE
:05046200000A12023F38
:010467002272
:1005850012059E1204028E088F09E4FCFD12039CDD
:090595007F057E001204F880EAE3
:040551007F057E00A4
:10055500EF1FAA0670011E4A600BE4FDEDC3940C63
:0505650050EE0D80F7CF
:01056A00226E
:1004AC00C200D2947F0C7E00120555C2947F507E00
:1004BC0000120555D2947F0A7E00120555A2949223
:0604CC0000120551A20020
:0104D2002207
:02051800A90731
:10051A00E4FBC294E9139294120551D294E9C313ED
:0C052A00F90BBB08ED7F057E00020555B3
:10056B00E4FBC294ECC313FCD29430940343048099
:09057B001205510BBB08EBAF04A3
:010584002254
:100003000202ABE86480F8E933E83360110460F07E
:10001300ED33EC337009E8FCE9FDEAFEEBFF220463
:1000230060DED3EB9FEA9EE99DE8C2E78CF0C2F75E
:1000330095F0400CE8CCF8E9CDF9EACEFAEBCFFB2A
:1000430012027685D0F05804700320D5B3E804700B
:10005300075002B2D50202B592D5EC0460F7E4CCA6
:10006300C0E0C398F8603B94186008400DD0E0FBF3
:1000730002028DE4FBFAC9FC8028E830E406E4C9F7
:10008300FBE4CAFCE830E305E4C9CACBFCE8540747
:100093006010F8C3E913F9EA13FAEB13FBEC13FC52
:1000A300D8F130F52FC3E49CFCEF9BFFEE9AFEEDF5
:1000B30099FDD0E0FBEF4E4D4C701222DB030202A0
:1000C300B2EC2CFCEF33FFEE33FEED33FDED30E706
:1000D300EB02028DEF2BFFEE3AFEED39FDD0E0FB94
:1000E30050130BBB00030202B5ED13FDEE13FEEF3D
:0800F30013FFEC13FC02028D67
:1000FB00EC4D6011E8497017ED33EC3304600DE4FF
:10010B00FCFFFEFD22E933E8330470F80202AB1268
:10011B00027658046009E4CC248150062850090269
:10012B0002B52840030202B2C0E0EB4A7044B9802A
:10013B0006D0E0FB0202A1EF4E701CBD8008EBFF66
:10014B00EAFEE9FD80EBE98DF0A4FEE5F00201E4A7
:10015B00E9CDF9EAFEEBFFEF89F0A4FCE5F0CE89DF
:10016B00F0A42EFFE435F0CD89F0A42DFEE435F09C
:10017B008067EF4E7005BD80D780C3EF8BF0A4ACCA
:10018B00F0EE8BF0A42CFCE435F0F8EF8AF0A42C05
:10019B00E5F038FCE433CB8DF0A42CFCE5F03BF818
:1001AB00EE8AF0A42CFCE5F038F8E433CF89F0A408
:1001BB002CFCE5F038CF3400CE89F0A42FFFE5F00E
:1001CB003EFEE433C98DF0A42EFEE5F039CD8AF066
:1001DB00A42FFFE5F03EFEE43DFD33D0E0FB5007DE
:1001EB000BBB000F0202B5EC2CFCEF33FFEE33FE22
:0601FB00ED33FD02028D50
:1002010075F020800E75F010800575F0087D007E78
:10021100007F003392D530D5031202C0EC33401079
:10022100EF33FFEE33FEED33FDEC33FCD5F0ED2281
:0E023100E5F0247EA2D513CC92E7CDCEFF22BD
:10023F00EDD2E7CD33EC3392D524814006E4FFFEB7
:10024F00FDFC22FCE4CFCECDCC24E0501174FF8016
:10025F00EDC3CC13CCCD13CDCE13CECF13CF0470B3
:07026F00F030D5DE0202C0F1
:10027600E9D2E7C933E833F892D5EDD2E7CD33ECCE
:0702860033FC5002B2D52247
:10028D00EC30E7100FBF000C0EBE00080DBD0004D2
:10029D000BEB6014A2D5EB13FCED92E7FD2274FF7E
:1002AD00FCFDFEFF22E480F8A2D574FF13FC7D80D7
:0302BD00E480EFEB
:030000000205AB4B
:0C05AB00787FE4F6D8FD758120020585FC
:10046800C2D5E830E70FB2D5E4C39BFBE49AFAE4BF
:1004780099F9E498F8EC30E717B2D512049E120304
:100488000AE4C39BFBE49AFAE499F9E498F8800338
:1004980012030A30D50DE4C39FFFE49EFEE49DFDE0
:0404A800E49CFC22B2
:0E02C000C3E49FFFE49EFEE49DFDE49CFC224F
:1002CE0075F008758200EF2FFFEE33FECD33CDCCE7
:1002DE0033CCC58233C5829BED9AEC99E58298406A
:1002EE000CF582EE9BFEED9AFDEC99FC0FD5F0D647
:1002FE00E4CEFBE4CDFAE4CCF9A88222B800C1B971
:10030E000059BA002DEC8BF084CFCECDFCE5F0CBAE
:10031E00F97818EF2FFFEE33FEED33FDEC33FCEBE7
:10032E0033FB10D703994004EB99FB0FD8E5E4F9A2
:10033E00FA227818EF2FFFEE33FEED33FDEC33FC8F
:10034E00C933C910D7059BE99A4007EC9BFCE99A83
:10035E00F90FD8E0E4C9FAE4CCFB2275F010EF2FC8
:10036E00FFEE33FEED33FDCC33CCC833C810D707C8
:10037E009BEC9AE899400AED9BFDEC9AFCE899F803
:0E038E000FD5F0DAE4CDFBE4CCFAE4C8F92296
:00000001FF
