:04056C0025640A00F8
:10000300D3EF9400EE6480948040147D6E7C00ED09
:0F0013001D70011CED4C70F7EF1F70E41E80E1B3
:0100220022BB
:0D05410075A00075A0A075800053A01F22BA
:10051600759850758E40E4F589758BE8758DFFD218
:08052600AFD2ACD28ED29922B3
:1004C00012052E7F9012045F1204FA7F0312045F5C
:0D04D0001204FA12054E7F0A7E000200039E
:1004DD0012052E7F9112045F1204FA1204A18F08E7
:0C04ED00E4FF12048212054EAF087E00EE
:0104F90022E0
:100410001205161205411204C01204DD8E1C8F1D38
:100420007BFF7A05796C851C0B851D0C1200887F7B
:08043000647E0012000380E16C
:030023000205666D
:06056600309802C2983239
:10052E00D2A1D2A00000000000C2A1000000000075
:03053E00C2A02236
:0C054E00C2A1D2A00000000000D2A12237
:10048200EF6004C2A18002D2A10000000000D2A04D
:0F0492000000000000C2A0D2A100000000002264
:1004FA00D2A10000000000D2A0000000000030A13C
:0C050A0007C2A012054EC322C2A0D322DB
:10045F00E4FEEF30E704D2A18002C2A10000000049
:10046F0000D2A0EF25E0FF0000000000C2A00EBEEA
:02047F0008E093
:010481002258
:1004A100E4FED2A00000000000EF25E0FF30A10330
:0E04B100430701C2A000000000000EBE08E4D8
:0104BF00221A
:0300000002055A9C
:0C055A00787FE4F6D8FD758121020410C2
:10002600E517240BF8E60517227808300702780B47
:10003600E475F0011203DA0203822000EB7F2ED270
:10004600008018EF540F2490D43440D4FF30040BB2
:10005600EF24BFB41A0050032461FFE518600215AF
:1000660018051BE51B7002051A30070D7808E475A4
:10007600F0011203DAEF0203C80204387403D20750
:100086008003E4C207F5178B088A09890AE4F51884
:10009600F51AF51BE51860077F2012006180F575DB
:1000A60019FFC201C200C202C203C205C206C208CB
:1000B60012002FFF700D3007057F00120072AF1B74
:1000C600AE1A22B4255FC2D5C20412002FFF24D077
:1000D600B40A00501A75F00A781830D50508B6FF2C
:1000E6000106C6A426F620D5047002D20380D924C0
:1000F600CFB41A00EF5004C2E5D204020272D20154
:1001060080C6D20080C0D20280BCD2D580BAD205C9
:1001160080B47F201200612002077401B5180040E8
:10012600F1120026FF12006102009AD208D2068060
:1001360095120026FB120026FA120026F94A4B7089
:100146000679437A037BFF20022EE518602A7E009B
:100156008E8275830012039B60060EEE651970F0A1
:10016600C2D5EBC0E0EAC0E0E9C0E0EE1202B9D0C9
:10017600E0F9D0E0FAD0E0FB120382FF60AAEBC000
:10018600E0EAC0E0E9C0E0120061D0E02401F9D065
:10019600E03400FAD0E0FBE5190460DCD519D9801B
:1001A600877BFF7A0279B5D202809C79108002792A
:1001B60008C206C2088008D2D5790A8004790AC224
:1001C600D5E519047002F519E4FAFDFEFF120026C2
:1001D600FC7B08200113120026FD7B1030000A125A
:1001E6000026FE120026FF7B20EC3382D592D550E6
:1001F60013C3E43000069FFFE49EFEE42001039D46
:10020600FDE49CFCE4CBF8C201EC700CCFCECDCC67
:10021600E824F8F870F38017C3EF33FFEE33FEEDF2
:1002260033FDEC33FCEB33FB994002FB0FD8E9EBD3
:10023600300105F8D0E0C448B201C0E00AEC4D4EEA
:100246004F78207B0070C2EAB5190040BCC0E012AE
:1002560002BBD0F0D0E0200104C4C0E0C4B201C0AB
:10026600F012004AD0F0D5F0EB02009A1203EA0130
:10027600375301B15801084C01044201B54F01BD85
:0F0286004401BD49011D4301C35501A74601A70E
:100295004501A747036350010C2D01102E01332B97
:1002A500011423013120034C2A00CC480000012B06
:1002B5003F3F3F00790AA2D5200314300509B91044
:1002C500020404B9080104A2D52006025001042045
:1002D50002689202B518005034C0E07F203003193F
:1002E5007F30A20272067205500F120312C202C2BB
:1002F50006C205C2087F30800F300503E9C0E01251
:100305000061300503D0E0F9D0E0B518CC30051711
:100315007F30B9100C1200617F583004077F788058
:1003250003B908031200613002057F2D0200617FC9
:10033500202008F87F2B2006F322920280CF286E1A
:10034500756C6C2900D2011200263001F8C20178C3
:100355001830D50108F60200CC2D5043495812003B
:10036500262403B405004001E490035E9312005275
:0D037500743A120052D2037518040201B14F
:10038200BB010689828A83E0225002E722BBFE0279
:09039200E32289828A83E49322AC
:10039B00BB010CE58229F582E5833AF583E0225017
:1003AB0006E92582F8E622BBFE06E92582F8E22261
:0D03BB00E58229F582E5833AF583E493227B
:1003C800BB010689828A83F0225002F722BBFE0114
:0203D800F3220E
:1003DA00FAE6FB0808E6F925F0F618E6CA3AF62224
:1003EA00D083D082F8E4937012740193700DA3A3A2
:1003FA0093F8740193F5828883E4737402936860B6
:06040A00EFA3A3A380DFB5
:10043800EFB40A07740D120443740A309811A8998E
:10044800B8130CC2983098FDA899C298B811F63024
:0704580099FDC299F59922FC
:00000001FF
