:0A03AA00C0F9A4B0999282F8809087
:1002F600D3EF9400EE6480948040147D6E7C00ED14
:0F0306001D70011CED4C70F7EF1F70E41E80E1BD
:0103150022C5
:0D03910075A00075A0A075800053A01F226C
:1003160075A00075A0E07580FF74AA2FF58274039E
:0B0326003EF583E493F58053A01F22F6
:1002AE00C374079FFFE49EFE75A00075A0C0758005
:1002BE00007401A807088002C333D8FC428053A003
:0502CE001F75800022F5
:0801AB008F188E178D168C15BC
:1001B300751B00751C01E4F519F51AAF1AAE191277
:1001C30002AEE47B0AFAF9F8AF18AE17AD16AC1518
:1001D30012026AAE02AF031203167F147E001202EC
:1001E300F6AF18AE17AD16AC15E47B0AFAF9F812A0
:1001F300026A8F188E178D168C15051AE51A700270
:0D0203000519C39408E5196480948040AE8D
:0102100022CB
:1002D300E4FD7F8E120367E4FD7F801203677D5880
:1002E3007F821203677D117F841203677D807F8E77
:0302F3000203679C
:100132007F8112037F8F0CE4FDFF120367E50C54ED
:1001420070C4540F75F00AA4FFAEF0E50C540F7C96
:10015200002FF509EC3EF5087F8312037F8F13E42D
:10016200FDFF120367E5135470C4540F75F00AA41F
:10017200FFAEF0E513540F7C002FF50BEC3EF50AB1
:100182007F8512037F8F14E4FDFF120367E5145489
:1001920070C4540F75F00AA4FFAEF0E514540F7C3E
:0901A200002FF50EEC3EF50D22D4
:100211001202D3120391120132AE0DAF0EE4FCFDB6
:100221007B407A42790FF8120015C004A905AA068D
:10023100AB07AE0AAF0B7C037DE8120003E4FCFDC3
:10024100D000EB2FFBEA3EFAED39F9EC38F8EB255B
:1002510009FFEA3508FEED39FDEC388F128E118D5C
:0902610010F50FFC1201AB80AD99
:10033100C297E4FEEF30E004D2A38002C2A3D297B9
:0A034100C297EFC313FF0EBE08EAD7
:01034B00228F
:10034C00E4FFFEEFC313FF30A30543078080035384
:0A035C00077FD297C2970EBE08E992
:010366002274
:10036700AE07C293C297D2935306FEAF061203316C
:08037700AF05120331C293220D
:10037F00C293C297D29343070112033112034CC2A7
:01038F0093DA
:01039000224A
:0300000002039E5A
:0C039E00787FE4F6D8FD75811C02021186
:10000300EF8DF0A4A8F0CF8CF0A428CE8DF0A42E11
:02001300FE22CB
:10001500E88FF0A4CC8BF0A42CFCE98EF0A42CFC8A
:100025008AF0EDA42CFCEA8EF0A4CDA8F08BF0A408
:100035002DCC3825F0FDE98FF0A42CCD35F0FCEB67
:100045008EF0A4FEA9F0EB8FF0A4CFC5F02ECD392C
:0F005500FEE43CFCEAA42DCE35F0FDE43CFC2299
:10026A00C2D5E830E70FB2D5E4C39BFBE49AFAE4BF
:10027A0099F9E498F8EC30E717B2D51202A0120007
:10028A00A0E4C39BFBE49AFAE499F9E498F88003A2
:10029A001200A030D50DE4C39FFFE49EFEE49DFD4D
:0402AA00E49CFC22B2
:1000640075F008758200EF2FFFEE33FECD33CDCC53
:1000740033CCC58233C5829BED9AEC99E5829840D6
:100084000CF582EE9BFEED9AFDEC99FC0FD5F0D6B3
:10009400E4CEFBE4CDFAE4CCF9A88222B800C1B9DD
:1000A4000059BA002DEC8BF084CFCECDFCE5F0CB1B
:1000B400F97818EF2FFFEE33FEED33FDEC33FCEB54
:1000C40033FB10D703994004EB99FB0FD8E5E4F90F
:1000D400FA227818EF2FFFEE33FEED33FDEC33FCFC
:1000E400C933C910D7059BE99A4007EC9BFCE99AF0
:1000F400F90FD8E0E4C9FAE4CCFB2275F010EF2F35
:10010400FFEE33FEED33FDCC33CCC833C810D70734
:100114009BEC9AE899400AED9BFDEC9AFCE899F86F
:0E0124000FD5F0DAE4CDFBE4CCFAE4C8F92202
:00000001FF
