:10004000D3EF9400EE6480948040147D6E7C00EDCC
:0F0050001D70011CED4C70F7EF1F70E41E80E176
:01005F00227E
:0D00760075A00075A0A075800053A01F228A
:04000300AD07AC0693
:1000070075A00075A080ED4C7004F5808027ED1475
:10001700FBE4FEA803088005C333CE33CED8F975B9
:100027000800F5097580FF7401A803088002C3332F
:08003700D8FCF4F58053A01F72
:01003F00229E
:10006000120076900001AF82AE831200037F647E9F
:060070000012004080F0C8
:0300000002008378
:0C008300787FE4F6D8FD7581090200606A
:00000001FF
