:0A044E00C0F9A4B0999282F88090E2
:0D04350075A00075A0A075800053A01F22C7
:1003B500D3EF9400EE6480948040147D6E7C00ED54
:0F03C5001D70011CED4C70F7EF1F70E41E80E1FE
:0103D4002206
:1003F40075A00075A0E07580FF744E2FF58274041B
:0B0404003EF583E493F58053A01F2217
:1003D500C374079FFFE49EFE75A00075A0C074015D
:0F03E500A807088002C333D8FCF58053A01F225D
:040373008E0C8F0D50
:10037700E4FBFAAF03AE021203D5AE0CAF0D7C005F
:100387007D0A120268AE04AF051203F47F0A7E00ED
:100397001203B5AE0CAF0D7C007D0A1202688E0CFD
:0D03A7008F0D0BBB00010AEB64084A70C605
:0103B4002226
:10040F00E4FFFEB290000000000FBF00010EEF648A
:04041F00104E70EF1C
:0104230022B6
:10042400438E80E4F589F58AF58CD28CD2A9D2AFBB
:0104340022A5
:1003010012043512042412040FD28C309103308D63
:10031100FAC28C308D10C28D750B00750AC075093B
:1003210079750844802BAF8AAD077C00AF8CEFFE56
:10033100E42DFDEC3EFC1201AE7B047AE7798C786A
:100341003C1200038F0B8E0A8D098C08E4F58CF5A5
:100351008AE4FBFA79207841AF0BAE0AAD09AC080B
:1003610012010C1201E71203737F0A7E001203B51A
:02037100809476
:10000300EC4D6011E8497017ED33EC3304600DE4F7
:10001300FCFFFEFD22E933E8330470F802025312B9
:10002300021E58046009E4CC2481500628500902BA
:10003300025D28400302025AC0E0EB4A7044B980D3
:1000430006D0E0FB020249EF4E701CBD8008EBFFB7
:10005300EAFEE9FD80EBE98DF0A4FEE5F00200EC99
:10006300E9CDF9EAFEEBFFEF89F0A4FCE5F0CE89D8
:10007300F0A42EFFE435F0CD89F0A42DFEE435F095
:100083008067EF4E7005BD80D780C3EF8BF0A4ACC3
:10009300F0EE8BF0A42CFCE435F0F8EF8AF0A42CFE
:1000A300E5F038FCE433CB8DF0A42CFCE5F03BF811
:1000B300EE8AF0A42CFCE5F038F8E433CF89F0A401
:1000C3002CFCE5F038CF3400CE89F0A42FFFE5F007
:1000D3003EFEE433C98DF0A42EFEE5F039CD8AF05F
:1000E300A42FFFE5F03EFEE43DFD33D0E0FB5007D7
:1000F3000BBB000F02025DEC2CFCEF33FFEE33FE73
:06010300ED33FD020235A0
:1001090002025DEC5D046005E859047003020253C4
:1001190012021E580460F6EC4860F2EC7004FDFE11
:10012900FF22C860DB2481C85009C39860025006C9
:1001390002025A9850CAF582E9294B4A7005AB82E6
:1001490002024975F0007C1A7880C3EF9BEE9AEDA4
:1001590099400DC3EF9BFFEE9AFEED99FDE842F041
:10016900DC23ACF0D0E0FFD0E0FED0E0FDAB822094
:10017900E7101BEB60BAEC2CFCEF33FFEE33FEED1E
:1001890033FD020235E803F830E705C0F075F000E9
:10019900EF2FFFEE33FEED33FD40B830E7C280AA02
:1001A90075F020800E75F010800575F0087D007ED1
:1001B900007F003392D530D50312029EEC334010F4
:1001C900EF33FFEE33FEED33FDEC33FCD5F0ED22DA
:0E01D900E5F0247EA2D513CC92E7CDCEFF2216
:1001E700EDD2E7CD33EC3392D524814006E4FFFE10
:1001F700FDFC22FCE4CFCECDCC24E0501174FF806F
:10020700EDC3CC13CCCD13CDCE13CECF13CF04700B
:07021700F030D5DE02029E6B
:10021E00E9D2E7C933E833F892D5EDD2E7CD33EC26
:07022E0033FC5002B2D5229F
:10023500EC30E7100FBF000C0EBE00080DBD00042A
:100245000BEB6014A2D5EB13FCED92E7FD2274FFD6
:10025500FCFDFEFF22E480F8A2D574FF13FC7D802F
:03026500E480EF43
:03000000020442B5
:0C044200787FE4F6D8FD75810D020301FF
:10026800C2D5EC30E709B2D5E4C39DFDE49CFCEEB1
:1002780030E715B2D5E4C39FFFE49EFE1202ACC37B
:10028800E49DFDE49CFC80031202AC30D507C3E476
:060298009FFFE49EFE2220
:0E029E00C3E49FFFE49EFEE49DFDE49CFC2271
:1002AC00BC000BBE0029EF8DF084FFADF022E4CC36
:1002BC00F875F008EF2FFFEE33FEEC33FCEE9DECFF
:1002CC00984005FCEE9DFE0FD5F0E9E4CEFD22ED45
:1002DC00F8F5F0EE8420D21CFEADF075F008EF2F8F
:1002EC00FFED33FD4007985006D5F0F222C398FD80
:0502FC000FD5F0EA221D
:00000001FF
