:0C0458000A0BC0F9A4B0999282F88090C1
:0A000E00D2A0ED25E0FD7F057E0085
:0B001800EF1FAC0670011E4C70F622BA
:0D044B0075A00075A0A075800053A01F22B1
:1003F30075A00075A0E07580FF740B2FF8E6F580FB
:0404030053A01F22C1
:10029D00C374079FFFE49EFE75A00075A0C0758016
:1002AD00007401A807088002C333D8FC428053A014
:0502BD001F7580002206
:080180008F1A8E198D188C17DF
:10018800751D00751E01E4F51BF51CAF1CAE1B1296
:10019800029DE47B0AFAF9F8AF1AAE19AD18AC174C
:1001A8001201E6AE02AF031203F37F147E001200C1
:1001B80018AF1AAE19AD18AC17E47B0AFAF9F812A1
:1001C80001E68F1A8E198D188C17051CE51C700214
:0D01D800051BC39408E51B6480948040AEB5
:0101E50022F7
:10042B00D2A1D2A0120014C2A17F057E0002001837
:10043B00C2A1D2A0120014D2A17F057E0002001827
:0A02E700AA0712042B7FA012032DBA
:1002F100D2A030A10BE517C394FA5004051780F280
:09030100C2A07F057E0002001875
:02032D00AD071A
:10032F00E4FBC2A0120014ED3392A11200141200CC
:10033F000E0BBB08EDC2A0D2A17F057E00020018F4
:10038D00E4FB12000E30A10543050180001200149C
:0B039D00C2A01200140BBB08E9AF0562
:0103A8002232
:1003C5008D821202E7AF0212032D1202F1AF8212E3
:0803D500032D1202F102043BAA
:1002C2001202E7AF0212032D1202F112042B7FA1D8
:1002D20012032D1202F112038DAB077A0012043BB6
:0402E2007E00AF03E8
:0102E60022F5
:10041A00438E80E4F589758CD4758ACDD2A9D28CA5
:01042A0022AF
:1003DD00759850758E40E4F589758BE8758DFFD253
:0603ED00AFD2ACD28E225B
:10022A00E4FF1203DD12044B12041AEFFDFC7F02F5
:10023A001203C57F0A7E001200187F021202C28FC3
:10024A000AAF0AE4FCFDFE120180E50964014508D3
:10025A0070EFF508F509E50AFD7C007F021203C577
:02026A0080DF33
:03000B0002026C82
:10026C00C0E0C0D00516E51670020515B4E81DE512
:10027C0015B40318751500751600050A7508007578
:10028C000901E50AD394644003750A00D0D0D0E08C
:01029C00322F
:0300230002047163
:0B047100309802C298309902C2993204
:10040700D2A1D2A00000000000C2A100000000009D
:03041700C2A0225E
:0C046500C2A1D2A00000000000D2A12221
:10034F00EF6004C2A18002D2A10000000000D2A081
:0F035F000000000000C2A0D2A100000000002298
:1003A900D2A10000000000D2A0000000000030A18E
:0C03B90007C2A0120465C322C2A0D32218
:10030A00E4FEEF30E704D2A18002C2A1000000009F
:10031A0000D2A0EF25E0FF0000000000C2A00EBE40
:02032A0008E0E9
:01032C0022AE
:10036E00E4FED2A00000000000EF25E0FF30A10364
:0E037E00430701C2A000000000000EBE08E40C
:01038C00224E
:030000000200F407
:0C00F400787FE4F6D8FD75811E02013B08
:1001E600C2D5E830E70FB2D5E4C39BFBE49AFAE444
:1001F60099F9E498F8EC30E717B2D512021C120010
:1002060062E4C39BFBE49AFAE499F9E498F8800364
:1002160012006230D50DE4C39FFFE49EFEE49DFD0F
:04022600E49CFC2236
:1001000002022AE493A3F8E493A34003F68001F2E9
:1001100008DFF48029E493A3F85407240CC8C33300
:10012000C4540F4420C8834004F456800146F6DFCF
:10013000E4800B0102040810204080900458E47E03
:10014000019360BCA3FF543F30E509541FFEE493C4
:10015000A360010ECF54C025E060A840B8E493A38B
:10016000FAE493A3F8E493A3C8C582C8CAC583CAB6
:10017000F0A3C8C582C8CAC583CADFE9DEE780BE6E
:010464000097
:1000260075F008758200EF2FFFEE33FECD33CDCC91
:1000360033CCC58233C5829BED9AEC99E582984014
:100046000CF582EE9BFEED9AFDEC99FC0FD5F0D6F1
:10005600E4CEFBE4CDFAE4CCF9A88222B800C1B91B
:100066000059BA002DEC8BF084CFCECDFCE5F0CB59
:10007600F97818EF2FFFEE33FEED33FDEC33FCEB92
:1000860033FB10D703994004EB99FB0FD8E5E4F94D
:10009600FA227818EF2FFFEE33FEED33FDEC33FC3A
:1000A600C933C910D7059BE99A4007EC9BFCE99A2E
:1000B600F90FD8E0E4C9FAE4CCFB2275F010EF2F73
:1000C600FFEE33FEED33FDCC33CCC833C810D70773
:1000D6009BEC9AE899400AED9BFDEC9AFCE899F8AE
:0E00E6000FD5F0DAE4CDFBE4CCFAE4C8F92241
:00000001FF
