:0A030C00C0F9A4B0999282F8809025
:10023F00D3EF9400EE6480948040147D6E7C00EDCB
:0F024F001D70011CED4C70F7EF1F70E41E80E175
:01025E00227D
:0D02E70075A00075A0A075800053A01F2217
:1002B90075A00075A0E07580FF740C2FF58274039A
:0B02C9003EF583E493F58053A01F2254
:1001D500C374079FFFE49EFE75A00075A0C07580DF
:1001E500007401A807088002C333D8FC428053A0DD
:0501F5001F75800022CF
:0800D1008F0C8E0B8D0A8C09C7
:1000D900750F00751001E4F50DF50EAF0EAE0D129A
:1000E90001D5E47B0AFAF9F8AF0CAE0BAD0AAC09FD
:1000F900120137AE02AF031202B97F147E00120259
:100109003FAF0CAE0BAD0AAC09E47B0AFAF9F81261
:1001190001378F0C8E0B8D0A8C09050EE50E7002C6
:0D012900050DC39408E50D6480948040AE80
:0101360022A6
:10021D008F118D121202D47FA01201FA12029DAF1E
:10022D00111201FA12029DAF121201FA12029D0271
:02023D0002F4C9
:02017B008F09EA
:10017D001202D47FA01201FA12029DAF091201FAE8
:10018D0012029D1202D47FA11201FA12029D1202D7
:0D019D007E8F0A7F0112025F1202F4AF0A8A
:0101AA002232
:1001AB001202E77F647E0012023F7F0A7E0012027A
:1001BB003FE4FF12017B8F087F0A7E0012023FAFE4
:0A01CB0008E4FCFDFE1200D180EEF6
:1002D400D2A1D2A00000000000C2A10000000000D2
:0302E400C2A02293
:0C02F400C2A1D2A00000000000D2A12294
:10025F00EF6004C2A18002D2A10000000000D2A072
:0F026F000000000000C2A0D2A100000000002289
:10029D00D2A10000000000D2A0000000000030A19B
:0C02AD0007C2A01202F4C322C2A0D32298
:1001FA00E4FEEF30E704D2A18002C2A100000000B1
:10020A0000D2A0EF25E0FF0000000000C2A00EBE51
:02021A0008E0FA
:01021C0022BF
:10027E00E4FED2A00000000000EF25E0FF30A10355
:0E028E00430701C2A000000000000EBE08E4FD
:01029C00223F
:03000000020300F8
:0C030000787FE4F6D8FD7581120201AB95
:10013700C2D5E830E70FB2D5E4C39BFBE49AFAE4F3
:1001470099F9E498F8EC30E717B2D512016D12006F
:100157003FE4C39BFBE49AFAE499F9E498F8800337
:1001670012003F30D50DE4C39FFFE49EFEE49DFDE2
:04017700E49CFC22E6
:1000030075F008758200EF2FFFEE33FECD33CDCCB4
:1000130033CCC58233C5829BED9AEC99E582984037
:100023000CF582EE9BFEED9AFDEC99FC0FD5F0D614
:10003300E4CEFBE4CDFAE4CCF9A88222B800C1B93E
:100043000059BA002DEC8BF084CFCECDFCE5F0CB7C
:10005300F97818EF2FFFEE33FEED33FDEC33FCEBB5
:1000630033FB10D703994004EB99FB0FD8E5E4F970
:10007300FA227818EF2FFFEE33FEED33FDEC33FC5D
:10008300C933C910D7059BE99A4007EC9BFCE99A51
:10009300F90FD8E0E4C9FAE4CCFB2275F010EF2F96
:1000A300FFEE33FEED33FDCC33CCC833C810D70796
:1000B3009BEC9AE899400AED9BFDEC9AFCE899F8D1
:0E00C3000FD5F0DAE4CDFBE4CCFAE4C8F92264
:00000001FF
