:0A031600C0F9A4B0999282F880901B
:1002AD00D3EF9400EE6480948040147D6E7C00ED5D
:0F02BD001D70011CED4C70F7EF1F70E41E80E107
:0102CC00220F
:0D02FD0075A00075A0A075800053A01F2201
:1002CD0075A00075A0E07580FF74162FF58274037C
:0B02DD003EF583E493F58053A01F2240
:10028800C374079FFFE49EFE75A00075A0C075802B
:10029800007401A807088002C333D8FC428053A029
:0502A8001F758000221B
:0801DE008F0B8E0A8D098C08BD
:1001E600750E00750F01E4F50CF50DAF0DAE0C1292
:1001F6000288E47B0AFAF9F8AF0BAE0AAD09AC083F
:10020600120244AE02AF031202CD7F147E00120228
:10021600ADAF0BAE0AAD09AC08E47B0AFAF9F812E9
:1002260002448F0B8E0A8D098C08050DE50D7002B0
:0D023600050CC39408E50C6480948040AE74
:010243002298
:1000F70075B00FC2C4C2C2E5B0640F602A7F057E27
:10010700001202ADE5B0640F601DAFB0D2C4D2C219
:1001170075B0F0A2C292B6A2C492B7E5B054F0FD92
:10012700E4F508EF4DF509E50860030201DDE5098F
:1001370012000301C27701A67B018A7D016E7E0151
:10014700C9B701ADBB0191BD0175BE01D0D701B4DF
:10015700DB0198DD017CDE01D7E701BBEB019FEDF9
:100167000183EE000001DD75100075110122751085
:1001770000751102227510007511032275100075A4
:1001870011042275100075110522751000751106EE
:100197002275100075110722751000751108227558
:1001A70010007511092275100075110A22751000CB
:1001B70075110B2275100075110C22751000751141
:1001C7000D2275100075110E2275100075110F2282
:0601D70075100075111007
:0101DD0022FF
:1002E8001202FD1200F7AE10AF11EE3395E0FDFCDF
:0502F8001201DE80EEA2
:0300000002030AEE
:0C030A00787FE4F6D8FD7581110202E84E
:10024400C2D5E830E70FB2D5E4C39BFBE49AFAE4E5
:1002540099F9E498F8EC30E717B2D512027A120053
:1002640065E4C39BFBE49AFAE499F9E498F8800303
:1002740012006530D50DE4C39FFFE49EFEE49DFDAE
:04028400E49CFC22D8
:10000300D083D082F8E4937012740193700DA3A38C
:1000130093F8740193F5828883E4737402936860A0
:06002300EFA3A3A380DFA0
:1000290075F008758200EF2FFFEE33FECD33CDCC8E
:1000390033CCC58233C5829BED9AEC99E582984011
:100049000CF582EE9BFEED9AFDEC99FC0FD5F0D6EE
:10005900E4CEFBE4CDFAE4CCF9A88222B800C1B918
:100069000059BA002DEC8BF084CFCECDFCE5F0CB56
:10007900F97818EF2FFFEE33FEED33FDEC33FCEB8F
:1000890033FB10D703994004EB99FB0FD8E5E4F94A
:10009900FA227818EF2FFFEE33FEED33FDEC33FC37
:1000A900C933C910D7059BE99A4007EC9BFCE99A2B
:1000B900F90FD8E0E4C9FAE4CCFB2275F010EF2F70
:1000C900FFEE33FEED33FDCC33CCC833C810D70770
:1000D9009BEC9AE899400AED9BFDEC9AFCE899F8AB
:0E00E9000FD5F0DAE4CDFBE4CCFAE4C8F9223E
:00000001FF
